{
  "_format": "hh-sol-artifact-1",
  "contractName": "ShiroStore",
  "sourceName": "contracts/ShiroStore.sol",
  "abi": [
    {
      "inputs": [
        {
          "internalType": "address",
          "name": "chainlinkTokenAddr",
          "type": "address"
        },
        {
          "internalType": "address",
          "name": "chainlinkOracleAddr",
          "type": "address"
        },
        {
          "internalType": "address",
          "name": "usdEthPriceFeedAddr",
          "type": "address"
        }
      ],
      "stateMutability": "nonpayable",
      "type": "constructor"
    },
    {
      "anonymous": false,
      "inputs": [
        {
          "indexed": true,
          "internalType": "bytes32",
          "name": "id",
          "type": "bytes32"
        }
      ],
      "name": "ChainlinkCancelled",
      "type": "event"
    },
    {
      "anonymous": false,
      "inputs": [
        {
          "indexed": true,
          "internalType": "bytes32",
          "name": "id",
          "type": "bytes32"
        }
      ],
      "name": "ChainlinkFulfilled",
      "type": "event"
    },
    {
      "anonymous": false,
      "inputs": [
        {
          "indexed": true,
          "internalType": "bytes32",
          "name": "id",
          "type": "bytes32"
        }
      ],
      "name": "ChainlinkRequested",
      "type": "event"
    },
    {
      "anonymous": false,
      "inputs": [
        {
          "indexed": false,
          "internalType": "address",
          "name": "owner",
          "type": "address"
        },
        {
          "indexed": false,
          "internalType": "string",
          "name": "cid",
          "type": "string"
        },
        {
          "indexed": false,
          "internalType": "uint256",
          "name": "timestamp",
          "type": "uint256"
        }
      ],
      "name": "DeleteFile",
      "type": "event"
    },
    {
      "anonymous": false,
      "inputs": [
        {
          "indexed": false,
          "internalType": "address",
          "name": "owner",
          "type": "address"
        },
        {
          "indexed": false,
          "internalType": "string",
          "name": "cid",
          "type": "string"
        },
        {
          "indexed": false,
          "internalType": "uint256",
          "name": "timestamp",
          "type": "uint256"
        },
        {
          "indexed": false,
          "internalType": "uint256",
          "name": "extendBy",
          "type": "uint256"
        }
      ],
      "name": "ExtendLife",
      "type": "event"
    },
    {
      "anonymous": false,
      "inputs": [
        {
          "indexed": false,
          "internalType": "address",
          "name": "owner",
          "type": "address"
        },
        {
          "indexed": false,
          "internalType": "string",
          "name": "cid",
          "type": "string"
        },
        {
          "indexed": false,
          "internalType": "string",
          "name": "provider",
          "type": "string"
        },
        {
          "indexed": false,
          "internalType": "uint256",
          "name": "timestamp",
          "type": "uint256"
        },
        {
          "indexed": false,
          "internalType": "uint256",
          "name": "validity",
          "type": "uint256"
        },
        {
          "indexed": false,
          "internalType": "uint256",
          "name": "value",
          "type": "uint256"
        },
        {
          "indexed": false,
          "internalType": "uint256",
          "name": "sizeInBytes",
          "type": "uint256"
        }
      ],
      "name": "NewFile",
      "type": "event"
    },
    {
      "anonymous": false,
      "inputs": [
        {
          "indexed": true,
          "internalType": "address",
          "name": "from",
          "type": "address"
        },
        {
          "indexed": true,
          "internalType": "address",
          "name": "to",
          "type": "address"
        }
      ],
      "name": "OwnershipTransferRequested",
      "type": "event"
    },
    {
      "anonymous": false,
      "inputs": [
        {
          "indexed": true,
          "internalType": "address",
          "name": "from",
          "type": "address"
        },
        {
          "indexed": true,
          "internalType": "address",
          "name": "to",
          "type": "address"
        }
      ],
      "name": "OwnershipTransferred",
      "type": "event"
    },
    {
      "anonymous": false,
      "inputs": [
        {
          "indexed": false,
          "internalType": "address",
          "name": "owner",
          "type": "address"
        },
        {
          "indexed": false,
          "internalType": "string",
          "name": "cid",
          "type": "string"
        },
        {
          "indexed": false,
          "internalType": "uint256",
          "name": "timestamp",
          "type": "uint256"
        },
        {
          "indexed": false,
          "internalType": "uint256",
          "name": "givenSize",
          "type": "uint256"
        },
        {
          "indexed": false,
          "internalType": "uint256",
          "name": "expectedSize",
          "type": "uint256"
        }
      ],
      "name": "RejectFile",
      "type": "event"
    },
    {
      "inputs": [],
      "name": "acceptOwnership",
      "outputs": [],
      "stateMutability": "nonpayable",
      "type": "function"
    },
    {
      "inputs": [
        {
          "internalType": "bytes",
          "name": "",
          "type": "bytes"
        }
      ],
      "name": "checkUpkeep",
      "outputs": [
        {
          "internalType": "bool",
          "name": "upkeepNeeded",
          "type": "bool"
        },
        {
          "internalType": "bytes",
          "name": "performData",
          "type": "bytes"
        }
      ],
      "stateMutability": "view",
      "type": "function"
    },
    {
      "inputs": [
        {
          "internalType": "string",
          "name": "cid",
          "type": "string"
        }
      ],
      "name": "deleteFile",
      "outputs": [],
      "stateMutability": "nonpayable",
      "type": "function"
    },
    {
      "inputs": [
        {
          "internalType": "bytes32",
          "name": "requestId",
          "type": "bytes32"
        },
        {
          "internalType": "address",
          "name": "owner",
          "type": "address"
        },
        {
          "internalType": "string",
          "name": "cid",
          "type": "string"
        },
        {
          "internalType": "uint256",
          "name": "size",
          "type": "uint256"
        },
        {
          "internalType": "uint256",
          "name": "validity",
          "type": "uint256"
        }
      ],
      "name": "fulfillFileSize",
      "outputs": [],
      "stateMutability": "nonpayable",
      "type": "function"
    },
    {
      "inputs": [],
      "name": "garbageCollect",
      "outputs": [],
      "stateMutability": "nonpayable",
      "type": "function"
    },
    {
      "inputs": [],
      "name": "getFiles",
      "outputs": [
        {
          "components": [
            {
              "internalType": "bool",
              "name": "valid",
              "type": "bool"
            },
            {
              "internalType": "bool",
              "name": "deleted",
              "type": "bool"
            },
            {
              "internalType": "bool",
              "name": "rejected",
              "type": "bool"
            },
            {
              "internalType": "string",
              "name": "cid",
              "type": "string"
            },
            {
              "internalType": "string",
              "name": "provider",
              "type": "string"
            },
            {
              "internalType": "uint256",
              "name": "timestamp",
              "type": "uint256"
            },
            {
              "internalType": "uint256",
              "name": "validity",
              "type": "uint256"
            },
            {
              "internalType": "uint256",
              "name": "value",
              "type": "uint256"
            },
            {
              "internalType": "uint256",
              "name": "sizeInBytes",
              "type": "uint256"
            }
          ],
          "internalType": "struct File[]",
          "name": "",
          "type": "tuple[]"
        }
      ],
      "stateMutability": "view",
      "type": "function"
    },
    {
      "inputs": [],
      "name": "owner",
      "outputs": [
        {
          "internalType": "address",
          "name": "",
          "type": "address"
        }
      ],
      "stateMutability": "view",
      "type": "function"
    },
    {
      "inputs": [
        {
          "internalType": "bytes",
          "name": "",
          "type": "bytes"
        }
      ],
      "name": "performUpkeep",
      "outputs": [],
      "stateMutability": "nonpayable",
      "type": "function"
    },
    {
      "inputs": [
        {
          "internalType": "string",
          "name": "cid",
          "type": "string"
        },
        {
          "internalType": "uint256",
          "name": "validity",
          "type": "uint256"
        },
        {
          "internalType": "string",
          "name": "provider",
          "type": "string"
        },
        {
          "internalType": "uint256",
          "name": "sizeInBytes",
          "type": "uint256"
        }
      ],
      "name": "putFile",
      "outputs": [],
      "stateMutability": "payable",
      "type": "function"
    },
    {
      "inputs": [
        {
          "internalType": "bytes32",
          "name": "_jobId",
          "type": "bytes32"
        }
      ],
      "name": "setJobId",
      "outputs": [],
      "stateMutability": "nonpayable",
      "type": "function"
    },
    {
      "inputs": [
        {
          "internalType": "address",
          "name": "to",
          "type": "address"
        }
      ],
      "name": "transferOwnership",
      "outputs": [],
      "stateMutability": "nonpayable",
      "type": "function"
    },
    {
      "inputs": [],
      "name": "withdrawLink",
      "outputs": [],
      "stateMutability": "nonpayable",
      "type": "function"
    }
  ],
  "bytecode": "0x60806040526001600455606e600d553480156200001b57600080fd5b5060405162004c5138038062004c51833981810160405281019062000041919062000422565b338060008073ffffffffffffffffffffffffffffffffffffffff168273ffffffffffffffffffffffffffffffffffffffff1603620000b6576040517f08c379a0000000000000000000000000000000000000000000000000000000008152600401620000ad90620004df565b60405180910390fd5b81600660006101000a81548173ffffffffffffffffffffffffffffffffffffffff021916908373ffffffffffffffffffffffffffffffffffffffff160217905550600073ffffffffffffffffffffffffffffffffffffffff168173ffffffffffffffffffffffffffffffffffffffff16146200013e576200013d81620001ff60201b60201c565b5b50505062000152836200033060201b60201c565b62000163826200037460201b60201c565b80600c60006101000a81548173ffffffffffffffffffffffffffffffffffffffff021916908373ffffffffffffffffffffffffffffffffffffffff1602179055507f6366616538313562656239383438393362386262633635623863643865363362600a81905550600a670de0b6b3a76400006001620001e491906200053a565b620001f09190620005b4565b600b819055505050506200065e565b3373ffffffffffffffffffffffffffffffffffffffff168173ffffffffffffffffffffffffffffffffffffffff160362000270576040517f08c379a000000000000000000000000000000000000000000000000000000000815260040162000267906200063c565b60405180910390fd5b80600760006101000a81548173ffffffffffffffffffffffffffffffffffffffff021916908373ffffffffffffffffffffffffffffffffffffffff1602179055508073ffffffffffffffffffffffffffffffffffffffff16600660009054906101000a900473ffffffffffffffffffffffffffffffffffffffff1673ffffffffffffffffffffffffffffffffffffffff167fed8889f560326eb138920d842192f0eb3dd22b4f139c87a2c57538e05bae127860405160405180910390a350565b80600260006101000a81548173ffffffffffffffffffffffffffffffffffffffff021916908373ffffffffffffffffffffffffffffffffffffffff16021790555050565b80600360006101000a81548173ffffffffffffffffffffffffffffffffffffffff021916908373ffffffffffffffffffffffffffffffffffffffff16021790555050565b600080fd5b600073ffffffffffffffffffffffffffffffffffffffff82169050919050565b6000620003ea82620003bd565b9050919050565b620003fc81620003dd565b81146200040857600080fd5b50565b6000815190506200041c81620003f1565b92915050565b6000806000606084860312156200043e576200043d620003b8565b5b60006200044e868287016200040b565b935050602062000461868287016200040b565b925050604062000474868287016200040b565b9150509250925092565b600082825260208201905092915050565b7f43616e6e6f7420736574206f776e657220746f207a65726f0000000000000000600082015250565b6000620004c76018836200047e565b9150620004d4826200048f565b602082019050919050565b60006020820190508181036000830152620004fa81620004b8565b9050919050565b6000819050919050565b7f4e487b7100000000000000000000000000000000000000000000000000000000600052601160045260246000fd5b6000620005478262000501565b9150620005548362000501565b9250828202620005648162000501565b915082820484148315176200057e576200057d6200050b565b5b5092915050565b7f4e487b7100000000000000000000000000000000000000000000000000000000600052601260045260246000fd5b6000620005c18262000501565b9150620005ce8362000501565b925082620005e157620005e062000585565b5b828204905092915050565b7f43616e6e6f74207472616e7366657220746f2073656c66000000000000000000600082015250565b6000620006246017836200047e565b91506200063182620005ec565b602082019050919050565b60006020820190508181036000830152620006578162000615565b9050919050565b6145e3806200066e6000396000f3fe6080604052600436106100a75760003560e01c80638da5cb5b116100645780638da5cb5b1461019a5780638dc654a2146101c55780639a6c6956146101dc578063a991005414610205578063f2fde38b1461022e578063f5672f9214610257576100a7565b80632da96d73146100ac5780634585e33b146100d7578063508954f8146101005780636e04ff0d146101295780636f448afb1461016757806379ba509714610183575b600080fd5b3480156100b857600080fd5b506100c161026e565b6040516100ce9190612bef565b60405180910390f35b3480156100e357600080fd5b506100fe60048036038101906100f99190612c8a565b610661565b005b34801561010c57600080fd5b5061012760048036038101906101229190612d0d565b6106c5565b005b34801561013557600080fd5b50610150600480360381019061014b9190612c8a565b6106d7565b60405161015e929190612d9e565b60405180910390f35b610181600480360381019061017c9190612f2a565b610891565b005b34801561018f57600080fd5b50610198610abe565b005b3480156101a657600080fd5b506101af610c55565b6040516101bc919061300a565b60405180910390f35b3480156101d157600080fd5b506101da610c7f565b005b3480156101e857600080fd5b5061020360048036038101906101fe9190613051565b610dcc565b005b34801561021157600080fd5b5061022c600480360381019061022791906130e8565b610fa7565b005b34801561023a57600080fd5b5061025560048036038101906102509190613131565b610fc9565b005b34801561026357600080fd5b5061026c610fdd565b005b606060003390506000805b600960008473ffffffffffffffffffffffffffffffffffffffff1673ffffffffffffffffffffffffffffffffffffffff16815260200190815260200160002080549050811015610355576000600960008573ffffffffffffffffffffffffffffffffffffffff1673ffffffffffffffffffffffffffffffffffffffff16815260200190815260200160002082815481106103165761031561315e565b5b9060005260206000209060070201905061032f81611140565b1561034357828061033f906131bc565b9350505b508061034e906131bc565b9050610279565b5060008167ffffffffffffffff81111561037257610371612dd3565b5b6040519080825280602002602001820160405280156103ab57816020015b6103986128c4565b8152602001906001900390816103905790505b5090506000805b600960008673ffffffffffffffffffffffffffffffffffffffff1673ffffffffffffffffffffffffffffffffffffffff16815260200190815260200160002080549050811015610656576000600960008773ffffffffffffffffffffffffffffffffffffffff1673ffffffffffffffffffffffffffffffffffffffff168152602001908152602001600020828154811061044f5761044e61315e565b5b9060005260206000209060070201905061046881611140565b156106445780604051806101200160405290816000820160009054906101000a900460ff161515151581526020016000820160019054906101000a900460ff161515151581526020016000820160029054906101000a900460ff161515151581526020016001820180546104db90613233565b80601f016020809104026020016040519081016040528092919081815260200182805461050790613233565b80156105545780601f1061052957610100808354040283529160200191610554565b820191906000526020600020905b81548152906001019060200180831161053757829003601f168201915b5050505050815260200160028201805461056d90613233565b80601f016020809104026020016040519081016040528092919081815260200182805461059990613233565b80156105e65780601f106105bb576101008083540402835291602001916105e6565b820191906000526020600020905b8154815290600101906020018083116105c957829003601f168201915b5050505050815260200160038201548152602001600482015481526020016005820154815260200160068201548152505084848151811061062a5761062961315e565b5b60200260200101819052508280610640906131bc565b9350505b508061064f906131bc565b90506103b2565b508194505050505090565b3073ffffffffffffffffffffffffffffffffffffffff1663f5672f926040518163ffffffff1660e01b8152600401600060405180830381600087803b1580156106a957600080fd5b505af11580156106bd573d6000803e3d6000fd5b505050505050565b6106cd611191565b80600a8190555050565b6000606060009150600067ffffffffffffffff8111156106fa576106f9612dd3565b5b6040519080825280601f01601f19166020018201604052801561072c5781602001600182028036833780820191505090505b50905060005b600880549050811015610889576000600882815481106107555761075461315e565b5b9060005260206000200160009054906101000a900473ffffffffffffffffffffffffffffffffffffffff16905060005b600960008373ffffffffffffffffffffffffffffffffffffffff1673ffffffffffffffffffffffffffffffffffffffff16815260200190815260200160002080549050811015610876576000600960008473ffffffffffffffffffffffffffffffffffffffff1673ffffffffffffffffffffffffffffffffffffffff16815260200190815260200160002082815481106108225761082161315e565b5b9060005260206000209060070201905061083b81611140565b801561085a575042816004015482600301546108579190613264565b11155b1561086457600195505b508061086f906131bc565b9050610785565b505080610882906131bc565b9050610732565b509250929050565b610e108310156108d6576040517f08c379a00000000000000000000000000000000000000000000000000000000081526004016108cd9061331b565b60405180910390fd5b6108df82611223565b600033905060006108f08386611419565b9050803410156108ff3461156b565b6109088361156b565b6040516020016109199291906133c3565b60405160208183030381529060405290610969576040517f08c379a0000000000000000000000000000000000000000000000000000000008152600401610960919061343e565b60405180910390fd5b50600061097683886116f3565b9050600034905061098682611140565b80156109a5575042826004015483600301546109a29190613264565b10155b15610a0957600042836004015484600301546109c19190613264565b6109cb9190613460565b90508260040154816109dd91906134c3565b83600501546109ec91906134f4565b826109f79190613264565b91508088610a059190613264565b9750505b60018260000160006101000a81548160ff02191690831515021790555060008260000160016101000a81548160ff02191690831515021790555060008260000160026101000a81548160ff02191690831515021790555087826001019081610a7191906136e2565b5085826002019081610a8391906136e2565b50428260030181905550868260040181905550808260050181905550848260060181905550610ab3848989611985565b505050505050505050565b600760009054906101000a900473ffffffffffffffffffffffffffffffffffffffff1673ffffffffffffffffffffffffffffffffffffffff163373ffffffffffffffffffffffffffffffffffffffff1614610b4e576040517f08c379a0000000000000000000000000000000000000000000000000000000008152600401610b4590613800565b60405180910390fd5b6000600660009054906101000a900473ffffffffffffffffffffffffffffffffffffffff16905033600660006101000a81548173ffffffffffffffffffffffffffffffffffffffff021916908373ffffffffffffffffffffffffffffffffffffffff1602179055506000600760006101000a81548173ffffffffffffffffffffffffffffffffffffffff021916908373ffffffffffffffffffffffffffffffffffffffff1602179055503373ffffffffffffffffffffffffffffffffffffffff168173ffffffffffffffffffffffffffffffffffffffff167f8be0079c531659141344cd1fd0a4f28419497f9722a3daafe3b4186f6b6457e060405160405180910390a350565b6000600660009054906101000a900473ffffffffffffffffffffffffffffffffffffffff16905090565b610c87611191565b6000610c91611a31565b90508073ffffffffffffffffffffffffffffffffffffffff1663a9059cbb338373ffffffffffffffffffffffffffffffffffffffff166370a08231306040518263ffffffff1660e01b8152600401610ce9919061300a565b602060405180830381865afa158015610d06573d6000803e3d6000fd5b505050506040513d601f19601f82011682018060405250810190610d2a9190613835565b6040518363ffffffff1660e01b8152600401610d47929190613871565b6020604051808303816000875af1158015610d66573d6000803e3d6000fd5b505050506040513d601f19601f82011682018060405250810190610d8a91906138c6565b610dc9576040517f08c379a0000000000000000000000000000000000000000000000000000000008152600401610dc09061393f565b60405180910390fd5b50565b846005600082815260200190815260200160002060009054906101000a900473ffffffffffffffffffffffffffffffffffffffff1673ffffffffffffffffffffffffffffffffffffffff163373ffffffffffffffffffffffffffffffffffffffff1614610e6e576040517f08c379a0000000000000000000000000000000000000000000000000000000008152600401610e65906139d1565b60405180910390fd5b6005600082815260200190815260200160002060006101000a81549073ffffffffffffffffffffffffffffffffffffffff0219169055807f7cc135e0cebb02c3480ae5d74d377283180a2601f8f644edf7987b009316c63a60405160405180910390a26000610edd86866116f3565b905080600601548414610f4f577f5342e8c94bd3e80469749ba13150c6dc9c7c2376a66286990e0030c7b62d6500868642846006015488604051610f259594939291906139f1565b60405180910390a160018160000160026101000a81548160ff021916908315150217905550610f9e565b7f9532c6f1863a239d60677a485d7603c24fb9bc631f78de1e2c2d341f0add3bbe868683600201428786600501548760060154604051610f959796959493929190613acf565b60405180910390a15b50505050505050565b60003390506000610fb88284611a5b565b9050610fc48282611c1a565b505050565b610fd1611191565b610fda81611c79565b50565b60005b60088054905081101561113d576000600882815481106110035761100261315e565b5b9060005260206000200160009054906101000a900473ffffffffffffffffffffffffffffffffffffffff16905060005b600960008373ffffffffffffffffffffffffffffffffffffffff1673ffffffffffffffffffffffffffffffffffffffff1681526020019081526020016000208054905081101561112a576000600960008473ffffffffffffffffffffffffffffffffffffffff1673ffffffffffffffffffffffffffffffffffffffff16815260200190815260200160002082815481106110d0576110cf61315e565b5b906000526020600020906007020190506110e981611140565b8015611108575042816004015482600301546111059190613264565b11155b15611118576111178382611c1a565b5b5080611123906131bc565b9050611033565b505080611136906131bc565b9050610fe0565b50565b60008160000160009054906101000a900460ff16801561116f57508160000160019054906101000a900460ff16155b801561118a57508160000160029054906101000a900460ff16155b9050919050565b600660009054906101000a900473ffffffffffffffffffffffffffffffffffffffff1673ffffffffffffffffffffffffffffffffffffffff163373ffffffffffffffffffffffffffffffffffffffff1614611221576040517f08c379a000000000000000000000000000000000000000000000000000000000815260040161121890613b98565b60405180910390fd5b565b611262816040518060400160405280600481526020017f6970667300000000000000000000000000000000000000000000000000000000815250611da7565b611416576112a5816040518060400160405280600c81526020017f776562332e73746f726167650000000000000000000000000000000000000000815250611da7565b611415576112e8816040518060400160405280600b81526020017f6e66742e73746f72616765000000000000000000000000000000000000000000815250611da7565b6114145761132b816040518060400160405280600681526020017f70696e6174610000000000000000000000000000000000000000000000000000815250611da7565b6114135761136e816040518060400160405280600581526020017f73746f726a000000000000000000000000000000000000000000000000000000815250611da7565b611412576113b1816040518060400160405280600781526020017f6573747561727900000000000000000000000000000000000000000000000000815250611da7565b61141157806040516020016113c69190613bde565b6040516020818303038152906040526040517f08c379a0000000000000000000000000000000000000000000000000000000008152600401611408919061343e565b60405180910390fd5b5b5b5b5b5b50565b600080611424611dbb565b9050600081121561146a576040517f08c379a000000000000000000000000000000000000000000000000000000000815260040161146190613c76565b60405180910390fd5b610e106103e882600d5461147e91906134f4565b61148891906134f4565b61149291906134f4565b83670de0b6b3a7640000600c60009054906101000a900473ffffffffffffffffffffffffffffffffffffffff1673ffffffffffffffffffffffffffffffffffffffff1663313ce5676040518163ffffffff1660e01b8152600401602060405180830381865afa158015611509573d6000803e3d6000fd5b505050506040513d601f19601f8201168201806040525081019061152d9190613ccf565b600a6115399190613e2f565b8761154491906134f4565b61154e91906134f4565b61155891906134f4565b61156291906134c3565b91505092915050565b6060600082036115b2576040518060400160405280600181526020017f300000000000000000000000000000000000000000000000000000000000000081525090506116ee565b600082905060005b600082146115e45780806115cd906131bc565b915050600a826115dd91906134c3565b91506115ba565b60008167ffffffffffffffff811115611600576115ff612dd3565b5b6040519080825280601f01601f1916602001820160405280156116325781602001600182028036833780820191505090505b50905060008290505b600086146116e6576001816116509190613460565b90506000600a808861166291906134c3565b61166c91906134f4565b876116779190613460565b60306116839190613e7a565b905060008160f81b9050808484815181106116a1576116a061315e565b5b60200101907effffffffffffffffffffffffffffffffffffffffffffffffffffffffffffff1916908160001a905350600a886116dd91906134c3565b9750505061163b565b819450505050505b919050565b600080600090505b600960008573ffffffffffffffffffffffffffffffffffffffff1673ffffffffffffffffffffffffffffffffffffffff16815260200190815260200160002080549050811015611870576000600960008673ffffffffffffffffffffffffffffffffffffffff1673ffffffffffffffffffffffffffffffffffffffff16815260200190815260200160002082815481106117985761179761315e565b5b906000526020600020906007020190506117b181611140565b801561184f575061184e8160010180546117ca90613233565b80601f01602080910402602001604051908101604052809291908181526020018280546117f690613233565b80156118435780601f1061181857610100808354040283529160200191611843565b820191906000526020600020905b81548152906001019060200180831161182657829003601f168201915b505050505085611da7565b5b1561185e57809250505061197f565b5080611869906131bc565b90506116fb565b506000600960008573ffffffffffffffffffffffffffffffffffffffff1673ffffffffffffffffffffffffffffffffffffffff168152602001908152602001600020805490500361191f576008839080600181540180825580915050600190039060005260206000200160009091909190916101000a81548173ffffffffffffffffffffffffffffffffffffffff021916908373ffffffffffffffffffffffffffffffffffffffff1602179055505b600960008473ffffffffffffffffffffffffffffffffffffffff1673ffffffffffffffffffffffffffffffffffffffff16815260200190815260200160002060018160018154018082558091505003906000526020600020906007020190505b92915050565b60008061199c600a5430639a6c695660e01b611e5c565b9050611a1b6040518060400160405280600381526020017f6765740000000000000000000000000000000000000000000000000000000000815250856119e188611e8d565b6119ea8761156b565b6040516020016119fc93929190613f93565b604051602081830303815290604052836120509092919063ffffffff16565b611a2781600b54612083565b9150509392505050565b6000600260009054906101000a900473ffffffffffffffffffffffffffffffffffffffff16905090565b600080600090505b600960008573ffffffffffffffffffffffffffffffffffffffff1673ffffffffffffffffffffffffffffffffffffffff16815260200190815260200160002080549050811015611bd8576000600960008673ffffffffffffffffffffffffffffffffffffffff1673ffffffffffffffffffffffffffffffffffffffff1681526020019081526020016000208281548110611b0057611aff61315e565b5b90600052602060002090600702019050611b1981611140565b8015611bb75750611bb6816001018054611b3290613233565b80601f0160208091040260200160405190810160405280929190818152602001828054611b5e90613233565b8015611bab5780601f10611b8057610100808354040283529160200191611bab565b820191906000526020600020905b815481529060010190602001808311611b8e57829003601f168201915b505050505085611da7565b5b15611bc6578092505050611c14565b5080611bd1906131bc565b9050611a63565b506040517f08c379a0000000000000000000000000000000000000000000000000000000008152600401611c0b90614057565b60405180910390fd5b92915050565b60018160000160016101000a81548160ff0219169083151502179055507f87ce0ade265327e97e9ada56eb2de32b116e9b7fda6bef97544403e5244124fb828260010142604051611c6d93929190614077565b60405180910390a15050565b3373ffffffffffffffffffffffffffffffffffffffff168173ffffffffffffffffffffffffffffffffffffffff1603611ce7576040517f08c379a0000000000000000000000000000000000000000000000000000000008152600401611cde90614101565b60405180910390fd5b80600760006101000a81548173ffffffffffffffffffffffffffffffffffffffff021916908373ffffffffffffffffffffffffffffffffffffffff1602179055508073ffffffffffffffffffffffffffffffffffffffff16600660009054906101000a900473ffffffffffffffffffffffffffffffffffffffff1673ffffffffffffffffffffffffffffffffffffffff167fed8889f560326eb138920d842192f0eb3dd22b4f139c87a2c57538e05bae127860405160405180910390a350565b6000611db383836120ba565b905092915050565b600080600c60009054906101000a900473ffffffffffffffffffffffffffffffffffffffff1673ffffffffffffffffffffffffffffffffffffffff1663feaf968c6040518163ffffffff1660e01b815260040160a060405180830381865afa158015611e2b573d6000803e3d6000fd5b505050506040513d601f19601f82011682018060405250810190611e4f9190614199565b5050509150508091505090565b611e64612916565b611e6c612916565b611e83858585846120e2909392919063ffffffff16565b9150509392505050565b60606000602867ffffffffffffffff811115611eac57611eab612dd3565b5b6040519080825280601f01601f191660200182016040528015611ede5781602001600182028036833780820191505090505b50905060005b6014811015612046576000816013611efc9190613460565b6008611f0891906134f4565b6002611f149190614214565b8573ffffffffffffffffffffffffffffffffffffffff16611f3591906134c3565b60f81b9050600060108260f81c611f4c919061425f565b60f81b905060008160f81c6010611f639190614290565b8360f81c611f7191906142cd565b60f81b9050611f7f82612192565b85856002611f8d91906134f4565b81518110611f9e57611f9d61315e565b5b60200101907effffffffffffffffffffffffffffffffffffffffffffffffffffffffffffff1916908160001a905350611fd681612192565b856001866002611fe691906134f4565b611ff09190613264565b815181106120015761200061315e565b5b60200101907effffffffffffffffffffffffffffffffffffffffffffffffffffffffffffff1916908160001a905350505050808061203e906131bc565b915050611ee4565b5080915050919050565b6120678284608001516121d890919063ffffffff16565b61207e8184608001516121d890919063ffffffff16565b505050565b60006120b2600360009054906101000a900473ffffffffffffffffffffffffffffffffffffffff1684846121fd565b905092915050565b6000815183511480156120da575081805190602001208380519060200120145b905092915050565b6120ea612916565b6120fa85608001516101006122c9565b508385600001818152505082856020019073ffffffffffffffffffffffffffffffffffffffff16908173ffffffffffffffffffffffffffffffffffffffff16815250508185604001907bffffffffffffffffffffffffffffffffffffffffffffffffffffffff191690817bffffffffffffffffffffffffffffffffffffffffffffffffffffffff191681525050849050949350505050565b6000600a8260f81c60ff1610156121bd5760308260f81c6121b39190613e7a565b60f81b90506121d3565b60578260f81c6121cd9190613e7a565b60f81b90505b919050565b6121e58260038351612333565b6121f881836124b890919063ffffffff16565b505050565b60008060045490506001816122129190613264565b6004819055506000634042994660e01b60008087600001513089604001518760018c608001516000015160405160240161225398979695949392919061434c565b604051602081830303815290604052907bffffffffffffffffffffffffffffffffffffffffffffffffffffffff19166020820180517bffffffffffffffffffffffffffffffffffffffffffffffffffffffff838183161783525050505090506122be868386846124da565b925050509392505050565b6122d1612983565b60006020836122e091906143d1565b1461230c576020826122f291906143d1565b60206122fe9190613460565b826123099190613264565b91505b81836020018181525050604051808452600081528281016020016040525082905092915050565b60178167ffffffffffffffff161161236a576123648160058460ff16901b60ff16178461266f90919063ffffffff16565b506124b3565b60ff8167ffffffffffffffff16116123c057612399601860058460ff16901b178461266f90919063ffffffff16565b506123ba8167ffffffffffffffff1660018561268f9092919063ffffffff16565b506124b2565b61ffff8167ffffffffffffffff1611612417576123f0601960058460ff16901b178461266f90919063ffffffff16565b506124118167ffffffffffffffff1660028561268f9092919063ffffffff16565b506124b1565b63ffffffff8167ffffffffffffffff161161247057612449601a60058460ff16901b178461266f90919063ffffffff16565b5061246a8167ffffffffffffffff1660048561268f9092919063ffffffff16565b506124b0565b61248d601b60058460ff16901b178461266f90919063ffffffff16565b506124ae8167ffffffffffffffff1660088561268f9092919063ffffffff16565b505b5b5b5b505050565b6124c0612983565b6124d2838460000151518485516126b1565b905092915050565b600030846040516020016124ef9291906144b1565b604051602081830303815290604052805190602001209050846005600083815260200190815260200160002060006101000a81548173ffffffffffffffffffffffffffffffffffffffff021916908373ffffffffffffffffffffffffffffffffffffffff160217905550807fb5e6e01e79f91267dc17b4e6314d5d4d03593d2ceee0fbb452b750bd70ea5af960405160405180910390a2600260009054906101000a900473ffffffffffffffffffffffffffffffffffffffff1673ffffffffffffffffffffffffffffffffffffffff16634000aea08685856040518463ffffffff1660e01b81526004016125e5939291906144dd565b6020604051808303816000875af1158015612604573d6000803e3d6000fd5b505050506040513d601f19601f8201168201806040525081019061262891906138c6565b612667576040517f08c379a000000000000000000000000000000000000000000000000000000000815260040161265e9061458d565b60405180910390fd5b949350505050565b612677612983565b61268783846000015151846127a0565b905092915050565b612697612983565b6126a88485600001515185856127f6565b90509392505050565b6126b9612983565b82518211156126c757600080fd5b846020015182856126d89190613264565b111561270d5761270c8560026126fd886020015188876126f89190613264565b612884565b61270791906134f4565b6128a0565b5b60008086518051876020830101935080888701111561272c5787860182525b60208701925050505b60208410612773578051825260208261274e9190613264565b915060208161275d9190613264565b905060208461276c9190613460565b9350612735565b60006001856020036101000a03905080198251168184511681811785525050508692505050949350505050565b6127a8612983565b836020015183106127ce576127cd84600286602001516127c891906134f4565b6128a0565b5b835180516020858301018481538186036127e9576001820183525b5050508390509392505050565b6127fe612983565b8460200151848361280f9190613264565b11156128375761283685600286856128279190613264565b61283191906134f4565b6128a0565b5b60006001836101006128499190614214565b6128539190613460565b905085518386820101858319825116178152815185880111156128765784870182525b505085915050949350505050565b6000818311156128965782905061289a565b8190505b92915050565b6000826000015190506128b383836122c9565b506128be83826124b8565b50505050565b6040518061012001604052806000151581526020016000151581526020016000151581526020016060815260200160608152602001600081526020016000815260200160008152602001600081525090565b6040518060a0016040528060008019168152602001600073ffffffffffffffffffffffffffffffffffffffff16815260200160007bffffffffffffffffffffffffffffffffffffffffffffffffffffffff191681526020016000815260200161297d612983565b81525090565b604051806040016040528060608152602001600081525090565b600081519050919050565b600082825260208201905092915050565b6000819050602082019050919050565b60008115159050919050565b6129de816129c9565b82525050565b600081519050919050565b600082825260208201905092915050565b60005b83811015612a1e578082015181840152602081019050612a03565b60008484015250505050565b6000601f19601f8301169050919050565b6000612a46826129e4565b612a5081856129ef565b9350612a60818560208601612a00565b612a6981612a2a565b840191505092915050565b6000819050919050565b612a8781612a74565b82525050565b600061012083016000830151612aa660008601826129d5565b506020830151612ab960208601826129d5565b506040830151612acc60408601826129d5565b5060608301518482036060860152612ae48282612a3b565b91505060808301518482036080860152612afe8282612a3b565b91505060a0830151612b1360a0860182612a7e565b5060c0830151612b2660c0860182612a7e565b5060e0830151612b3960e0860182612a7e565b50610100830151612b4e610100860182612a7e565b508091505092915050565b6000612b658383612a8d565b905092915050565b6000602082019050919050565b6000612b858261299d565b612b8f81856129a8565b935083602082028501612ba1856129b9565b8060005b85811015612bdd5784840389528151612bbe8582612b59565b9450612bc983612b6d565b925060208a01995050600181019050612ba5565b50829750879550505050505092915050565b60006020820190508181036000830152612c098184612b7a565b905092915050565b6000604051905090565b600080fd5b600080fd5b600080fd5b600080fd5b600080fd5b60008083601f840112612c4a57612c49612c25565b5b8235905067ffffffffffffffff811115612c6757612c66612c2a565b5b602083019150836001820283011115612c8357612c82612c2f565b5b9250929050565b60008060208385031215612ca157612ca0612c1b565b5b600083013567ffffffffffffffff811115612cbf57612cbe612c20565b5b612ccb85828601612c34565b92509250509250929050565b6000819050919050565b612cea81612cd7565b8114612cf557600080fd5b50565b600081359050612d0781612ce1565b92915050565b600060208284031215612d2357612d22612c1b565b5b6000612d3184828501612cf8565b91505092915050565b612d43816129c9565b82525050565b600081519050919050565b600082825260208201905092915050565b6000612d7082612d49565b612d7a8185612d54565b9350612d8a818560208601612a00565b612d9381612a2a565b840191505092915050565b6000604082019050612db36000830185612d3a565b8181036020830152612dc58184612d65565b90509392505050565b600080fd5b7f4e487b7100000000000000000000000000000000000000000000000000000000600052604160045260246000fd5b612e0b82612a2a565b810181811067ffffffffffffffff82111715612e2a57612e29612dd3565b5b80604052505050565b6000612e3d612c11565b9050612e498282612e02565b919050565b600067ffffffffffffffff821115612e6957612e68612dd3565b5b612e7282612a2a565b9050602081019050919050565b82818337600083830152505050565b6000612ea1612e9c84612e4e565b612e33565b905082815260208101848484011115612ebd57612ebc612dce565b5b612ec8848285612e7f565b509392505050565b600082601f830112612ee557612ee4612c25565b5b8135612ef5848260208601612e8e565b91505092915050565b612f0781612a74565b8114612f1257600080fd5b50565b600081359050612f2481612efe565b92915050565b60008060008060808587031215612f4457612f43612c1b565b5b600085013567ffffffffffffffff811115612f6257612f61612c20565b5b612f6e87828801612ed0565b9450506020612f7f87828801612f15565b935050604085013567ffffffffffffffff811115612fa057612f9f612c20565b5b612fac87828801612ed0565b9250506060612fbd87828801612f15565b91505092959194509250565b600073ffffffffffffffffffffffffffffffffffffffff82169050919050565b6000612ff482612fc9565b9050919050565b61300481612fe9565b82525050565b600060208201905061301f6000830184612ffb565b92915050565b61302e81612fe9565b811461303957600080fd5b50565b60008135905061304b81613025565b92915050565b600080600080600060a0868803121561306d5761306c612c1b565b5b600061307b88828901612cf8565b955050602061308c8882890161303c565b945050604086013567ffffffffffffffff8111156130ad576130ac612c20565b5b6130b988828901612ed0565b93505060606130ca88828901612f15565b92505060806130db88828901612f15565b9150509295509295909350565b6000602082840312156130fe576130fd612c1b565b5b600082013567ffffffffffffffff81111561311c5761311b612c20565b5b61312884828501612ed0565b91505092915050565b60006020828403121561314757613146612c1b565b5b60006131558482850161303c565b91505092915050565b7f4e487b7100000000000000000000000000000000000000000000000000000000600052603260045260246000fd5b7f4e487b7100000000000000000000000000000000000000000000000000000000600052601160045260246000fd5b60006131c782612a74565b91507fffffffffffffffffffffffffffffffffffffffffffffffffffffffffffffffff82036131f9576131f861318d565b5b600182019050919050565b7f4e487b7100000000000000000000000000000000000000000000000000000000600052602260045260246000fd5b6000600282049050600182168061324b57607f821691505b60208210810361325e5761325d613204565b5b50919050565b600061326f82612a74565b915061327a83612a74565b92508282019050808211156132925761329161318d565b5b92915050565b600082825260208201905092915050565b7f56616c6964697479206d757374206265206174206c6561737420616e20686f7560008201527f722e000000000000000000000000000000000000000000000000000000000000602082015250565b6000613305602283613298565b9150613310826132a9565b604082019050919050565b60006020820190508181036000830152613334816132f8565b9050919050565b7f4e6f7420656e6f7567682076616c756520676976656e212e20476f743a200000815250565b600081905092915050565b6000613377826129e4565b6133818185613361565b9350613391818560208601612a00565b80840191505092915050565b7f2057616e746564206174206c656173743a200000000000000000000000000000815250565b60006133ce8261333b565b601e820191506133de828561336c565b91506133e98261339d565b6012820191506133f9828461336c565b91508190509392505050565b6000613410826129e4565b61341a8185613298565b935061342a818560208601612a00565b61343381612a2a565b840191505092915050565b600060208201905081810360008301526134588184613405565b905092915050565b600061346b82612a74565b915061347683612a74565b925082820390508181111561348e5761348d61318d565b5b92915050565b7f4e487b7100000000000000000000000000000000000000000000000000000000600052601260045260246000fd5b60006134ce82612a74565b91506134d983612a74565b9250826134e9576134e8613494565b5b828204905092915050565b60006134ff82612a74565b915061350a83612a74565b925082820261351881612a74565b9150828204841483151761352f5761352e61318d565b5b5092915050565b60008190508160005260206000209050919050565b60006020601f8301049050919050565b600082821b905092915050565b6000600883026135987fffffffffffffffffffffffffffffffffffffffffffffffffffffffffffffffff8261355b565b6135a2868361355b565b95508019841693508086168417925050509392505050565b6000819050919050565b60006135df6135da6135d584612a74565b6135ba565b612a74565b9050919050565b6000819050919050565b6135f9836135c4565b61360d613605826135e6565b848454613568565b825550505050565b600090565b613622613615565b61362d8184846135f0565b505050565b5b818110156136515761364660008261361a565b600181019050613633565b5050565b601f8211156136965761366781613536565b6136708461354b565b8101602085101561367f578190505b61369361368b8561354b565b830182613632565b50505b505050565b600082821c905092915050565b60006136b96000198460080261369b565b1980831691505092915050565b60006136d283836136a8565b9150826002028217905092915050565b6136eb826129e4565b67ffffffffffffffff81111561370457613703612dd3565b5b61370e8254613233565b613719828285613655565b600060209050601f83116001811461374c576000841561373a578287015190505b61374485826136c6565b8655506137ac565b601f19841661375a86613536565b60005b828110156137825784890151825560018201915060208501945060208101905061375d565b8683101561379f578489015161379b601f8916826136a8565b8355505b6001600288020188555050505b505050505050565b7f4d7573742062652070726f706f736564206f776e657200000000000000000000600082015250565b60006137ea601683613298565b91506137f5826137b4565b602082019050919050565b60006020820190508181036000830152613819816137dd565b9050919050565b60008151905061382f81612efe565b92915050565b60006020828403121561384b5761384a612c1b565b5b600061385984828501613820565b91505092915050565b61386b81612a74565b82525050565b60006040820190506138866000830185612ffb565b6138936020830184613862565b9392505050565b6138a3816129c9565b81146138ae57600080fd5b50565b6000815190506138c08161389a565b92915050565b6000602082840312156138dc576138db612c1b565b5b60006138ea848285016138b1565b91505092915050565b7f556e61626c6520746f207472616e736665720000000000000000000000000000600082015250565b6000613929601283613298565b9150613934826138f3565b602082019050919050565b600060208201905081810360008301526139588161391c565b9050919050565b7f536f75726365206d75737420626520746865206f7261636c65206f662074686560008201527f2072657175657374000000000000000000000000000000000000000000000000602082015250565b60006139bb602883613298565b91506139c68261395f565b604082019050919050565b600060208201905081810360008301526139ea816139ae565b9050919050565b600060a082019050613a066000830188612ffb565b8181036020830152613a188187613405565b9050613a276040830186613862565b613a346060830185613862565b613a416080830184613862565b9695505050505050565b60008154613a5881613233565b613a628186613298565b94506001821660008114613a7d5760018114613a9357613ac6565b60ff198316865281151560200286019350613ac6565b613a9c85613536565b60005b83811015613abe57815481890152600182019150602081019050613a9f565b808801955050505b50505092915050565b600060e082019050613ae4600083018a612ffb565b8181036020830152613af68189613405565b90508181036040830152613b0a8188613a4b565b9050613b196060830187613862565b613b266080830186613862565b613b3360a0830185613862565b613b4060c0830184613862565b98975050505050505050565b7f4f6e6c792063616c6c61626c65206279206f776e657200000000000000000000600082015250565b6000613b82601683613298565b9150613b8d82613b4c565b602082019050919050565b60006020820190508181036000830152613bb181613b75565b9050919050565b7f696e76616c69642073746f726167652070726f76696465723a20000000000000815250565b6000613be982613bb8565b601a82019150613bf9828461336c565b915081905092915050565b7f5553442d45544820636f6e76657273696f6e20726174652063616e6e6f74206260008201527f65206e6567617469766500000000000000000000000000000000000000000000602082015250565b6000613c60602a83613298565b9150613c6b82613c04565b604082019050919050565b60006020820190508181036000830152613c8f81613c53565b9050919050565b600060ff82169050919050565b613cac81613c96565b8114613cb757600080fd5b50565b600081519050613cc981613ca3565b92915050565b600060208284031215613ce557613ce4612c1b565b5b6000613cf384828501613cba565b91505092915050565b60008160011c9050919050565b6000808291508390505b6001851115613d5357808604811115613d2f57613d2e61318d565b5b6001851615613d3e5780820291505b8081029050613d4c85613cfc565b9450613d13565b94509492505050565b600082613d6c5760019050613e28565b81613d7a5760009050613e28565b8160018114613d905760028114613d9a57613dc9565b6001915050613e28565b60ff841115613dac57613dab61318d565b5b8360020a915084821115613dc357613dc261318d565b5b50613e28565b5060208310610133831016604e8410600b8410161715613dfe5782820a905083811115613df957613df861318d565b5b613e28565b613e0b8484846001613d09565b92509050818404811115613e2257613e2161318d565b5b81810290505b9392505050565b6000613e3a82612a74565b9150613e4583613c96565b9250613e727fffffffffffffffffffffffffffffffffffffffffffffffffffffffffffffffff8484613d5c565b905092915050565b6000613e8582613c96565b9150613e9083613c96565b9250828201905060ff811115613ea957613ea861318d565b5b92915050565b7f68747470733a2f2f73746f726167652e736869726f2e6e6574776f726b2f666960008201527f6c6553697a653f6369643d000000000000000000000000000000000000000000602082015250565b6000613f0b602b83613361565b9150613f1682613eaf565b602b82019050919050565b7f2600000000000000000000000000000000000000000000000000000000000000815250565b7f6f776e65723d0000000000000000000000000000000000000000000000000000815250565b7f76616c69646974793d0000000000000000000000000000000000000000000000815250565b6000613f9e82613efe565b9150613faa828661336c565b9150613fb582613f21565b600182019150613fc482613f47565b600682019150613fd4828561336c565b9150613fdf82613f21565b600182019150613fee82613f6d565b600982019150613ffe828461336c565b9150819050949350505050565b7f46696c65206e6f7420666f756e64206f722069732064656c657465642e000000600082015250565b6000614041601d83613298565b915061404c8261400b565b602082019050919050565b6000602082019050818103600083015261407081614034565b9050919050565b600060608201905061408c6000830186612ffb565b818103602083015261409e8185613a4b565b90506140ad6040830184613862565b949350505050565b7f43616e6e6f74207472616e7366657220746f2073656c66000000000000000000600082015250565b60006140eb601783613298565b91506140f6826140b5565b602082019050919050565b6000602082019050818103600083015261411a816140de565b9050919050565b600069ffffffffffffffffffff82169050919050565b61414081614121565b811461414b57600080fd5b50565b60008151905061415d81614137565b92915050565b6000819050919050565b61417681614163565b811461418157600080fd5b50565b6000815190506141938161416d565b92915050565b600080600080600060a086880312156141b5576141b4612c1b565b5b60006141c38882890161414e565b95505060206141d488828901614184565b94505060406141e588828901613820565b93505060606141f688828901613820565b92505060806142078882890161414e565b9150509295509295909350565b600061421f82612a74565b915061422a83612a74565b92506142577fffffffffffffffffffffffffffffffffffffffffffffffffffffffffffffffff8484613d5c565b905092915050565b600061426a82613c96565b915061427583613c96565b92508261428557614284613494565b5b828204905092915050565b600061429b82613c96565b91506142a683613c96565b92508282026142b481613c96565b91508082146142c6576142c561318d565b5b5092915050565b60006142d882613c96565b91506142e383613c96565b9250828203905060ff8111156142fc576142fb61318d565b5b92915050565b61430b81612cd7565b82525050565b60007fffffffff0000000000000000000000000000000000000000000000000000000082169050919050565b61434681614311565b82525050565b600061010082019050614362600083018b612ffb565b61436f602083018a613862565b61437c6040830189614302565b6143896060830188612ffb565b614396608083018761433d565b6143a360a0830186613862565b6143b060c0830185613862565b81810360e08301526143c28184612d65565b90509998505050505050505050565b60006143dc82612a74565b91506143e783612a74565b9250826143f7576143f6613494565b5b828206905092915050565b600061441d61441861441384612fc9565b6135ba565b612fc9565b9050919050565b600061442f82614402565b9050919050565b600061444182614424565b9050919050565b60008160601b9050919050565b600061446082614448565b9050919050565b600061447282614455565b9050919050565b61448a61448582614436565b614467565b82525050565b6000819050919050565b6144ab6144a682612a74565b614490565b82525050565b60006144bd8285614479565b6014820191506144cd828461449a565b6020820191508190509392505050565b60006060820190506144f26000830186612ffb565b6144ff6020830185613862565b81810360408301526145118184612d65565b9050949350505050565b7f756e61626c6520746f207472616e73666572416e6443616c6c20746f206f726160008201527f636c650000000000000000000000000000000000000000000000000000000000602082015250565b6000614577602383613298565b91506145828261451b565b604082019050919050565b600060208201905081810360008301526145a68161456a565b905091905056fea26469706673582212204b359cd24c29d02e3d053301ea384a18d367d7eca156e468794bf8a5ae38c4b064736f6c63430008110033",
  "linkReferences": {},
  "deployedLinkReferences": {}
}