{
  "_format": "hh-sol-artifact-1",
  "contractName": "ShiroStore",
  "sourceName": "contracts/ShiroStore.sol",
  "abi": [
    {
      "anonymous": false,
      "inputs": [
        {
          "indexed": false,
          "internalType": "address",
          "name": "owner",
          "type": "address"
        },
        {
          "indexed": false,
          "internalType": "string",
          "name": "cid",
          "type": "string"
        },
        {
          "indexed": false,
          "internalType": "uint256",
          "name": "timestamp",
          "type": "uint256"
        }
      ],
      "name": "DeleteFile",
      "type": "event"
    },
    {
      "anonymous": false,
      "inputs": [
        {
          "indexed": false,
          "internalType": "address",
          "name": "owner",
          "type": "address"
        },
        {
          "indexed": false,
          "internalType": "string",
          "name": "cid",
          "type": "string"
        },
        {
          "indexed": false,
          "internalType": "uint256",
          "name": "timestamp",
          "type": "uint256"
        },
        {
          "indexed": false,
          "internalType": "uint256",
          "name": "extendBy",
          "type": "uint256"
        }
      ],
      "name": "ExtendLife",
      "type": "event"
    },
    {
      "anonymous": false,
      "inputs": [
        {
          "indexed": false,
          "internalType": "address",
          "name": "owner",
          "type": "address"
        },
        {
          "indexed": false,
          "internalType": "string",
          "name": "cid",
          "type": "string"
        },
        {
          "indexed": false,
          "internalType": "uint256",
          "name": "timestamp",
          "type": "uint256"
        },
        {
          "indexed": false,
          "internalType": "uint256",
          "name": "validity",
          "type": "uint256"
        }
      ],
      "name": "NewFile",
      "type": "event"
    },
    {
      "inputs": [
        {
          "internalType": "address",
          "name": "owner",
          "type": "address"
        },
        {
          "internalType": "string",
          "name": "cid",
          "type": "string"
        }
      ],
      "name": "deleteFile",
      "outputs": [],
      "stateMutability": "nonpayable",
      "type": "function"
    },
    {
      "inputs": [],
      "name": "garbageCollect",
      "outputs": [],
      "stateMutability": "nonpayable",
      "type": "function"
    },
    {
      "inputs": [
        {
          "internalType": "address",
          "name": "owner",
          "type": "address"
        }
      ],
      "name": "getFiles",
      "outputs": [
        {
          "components": [
            {
              "internalType": "bool",
              "name": "valid",
              "type": "bool"
            },
            {
              "internalType": "bool",
              "name": "deleted",
              "type": "bool"
            },
            {
              "internalType": "string",
              "name": "cid",
              "type": "string"
            },
            {
              "internalType": "uint256",
              "name": "timestamp",
              "type": "uint256"
            },
            {
              "internalType": "uint256",
              "name": "validity",
              "type": "uint256"
            }
          ],
          "internalType": "struct ShiroStore.File[]",
          "name": "",
          "type": "tuple[]"
        }
      ],
      "stateMutability": "view",
      "type": "function"
    },
    {
      "inputs": [
        {
          "internalType": "address",
          "name": "owner",
          "type": "address"
        },
        {
          "internalType": "string",
          "name": "cid",
          "type": "string"
        },
        {
          "internalType": "uint256",
          "name": "validity",
          "type": "uint256"
        }
      ],
      "name": "putFile",
      "outputs": [],
      "stateMutability": "payable",
      "type": "function"
    }
  ],
  "bytecode": "0x608060405234801561001057600080fd5b506118fd806100206000396000f3fe60806040526004361061003f5760003560e01c80630b27d29114610044578063101f510614610060578063433bf37b14610089578063f5672f92146100c6575b600080fd5b61005e60048036038101906100599190610f00565b6100dd565b005b34801561006c57600080fd5b5061008760048036038101906100829190610f6f565b610293565b005b34801561009557600080fd5b506100b060048036038101906100ab9190610fcb565b6102b0565b6040516100bd91906111d9565b60405180910390f35b3480156100d257600080fd5b506100db610625565b005b602e825114610121576040517f08c379a000000000000000000000000000000000000000000000000000000000815260040161011890611258565b60405180910390fd5b610e10811015610166576040517f08c379a000000000000000000000000000000000000000000000000000000000815260040161015d906112ea565b60405180910390fd5b600061017284846107ab565b90508060000160009054906101000a900460ff1680156101a157508060000160019054906101000a900460ff16155b80156101c0575042816003015482600201546101bd9190611339565b10155b156101f25742816003015482600201546101da9190611339565b6101e4919061136d565b826101ef9190611339565b91505b60018160000160006101000a81548160ff02191690831515021790555060008160000160016101000a81548160ff0219169083151502179055508281600101908161023d91906115ad565b504281600201819055508181600301819055507fca4a9a3f935212e90fcdedaa4569c635857fa2a3fa6616cbea9ffe92e30dd8288484428560405161028594939291906116d6565b60405180910390a150505050565b600061029f8383610a61565b90506102ab8382610c44565b505050565b60606000805b600160008573ffffffffffffffffffffffffffffffffffffffff1673ffffffffffffffffffffffffffffffffffffffff168152602001908152602001600020805490508110156103b6576000600160008673ffffffffffffffffffffffffffffffffffffffff1673ffffffffffffffffffffffffffffffffffffffff168152602001908152602001600020828154811061035357610352611722565b5b906000526020600020906004020190508060000160009054906101000a900460ff16801561039057508060000160019054906101000a900460ff16155b156103a45782806103a090611751565b9350505b50806103af90611751565b90506102b6565b5060008167ffffffffffffffff8111156103d3576103d2610d9f565b5b60405190808252806020026020018201604052801561040c57816020015b6103f9610cdf565b8152602001906001900390816103f15790505b5090506000805b600160008773ffffffffffffffffffffffffffffffffffffffff1673ffffffffffffffffffffffffffffffffffffffff16815260200190815260200160002080549050811015610619576000600160008873ffffffffffffffffffffffffffffffffffffffff1673ffffffffffffffffffffffffffffffffffffffff16815260200190815260200160002082815481106104b0576104af611722565b5b906000526020600020906004020190508060000160009054906101000a900460ff1680156104ed57508060000160019054906101000a900460ff16155b1561060757806040518060a00160405290816000820160009054906101000a900460ff161515151581526020016000820160019054906101000a900460ff16151515158152602001600182018054610544906113d0565b80601f0160208091040260200160405190810160405280929190818152602001828054610570906113d0565b80156105bd5780601f10610592576101008083540402835291602001916105bd565b820191906000526020600020905b8154815290600101906020018083116105a057829003601f168201915b50505050508152602001600282015481526020016003820154815250508484815181106105ed576105ec611722565b5b6020026020010181905250828061060390611751565b9350505b508061061290611751565b9050610413565b50819350505050919050565b60005b6000805490508110156107a857600080828154811061064a57610649611722565b5b9060005260206000200160009054906101000a900473ffffffffffffffffffffffffffffffffffffffff16905060005b600160008373ffffffffffffffffffffffffffffffffffffffff1673ffffffffffffffffffffffffffffffffffffffff16815260200190815260200160002080549050811015610795576000600160008473ffffffffffffffffffffffffffffffffffffffff1673ffffffffffffffffffffffffffffffffffffffff168152602001908152602001600020828154811061071757610716611722565b5b906000526020600020906004020190508060000160009054906101000a900460ff16801561075457508060000160019054906101000a900460ff16155b8015610773575042816003015482600201546107709190611339565b11155b15610783576107828382610c44565b5b508061078e90611751565b905061067a565b5050806107a190611751565b9050610628565b50565b600080600090505b600160008573ffffffffffffffffffffffffffffffffffffffff1673ffffffffffffffffffffffffffffffffffffffff1681526020019081526020016000208054905081101561094c576000600160008673ffffffffffffffffffffffffffffffffffffffff1673ffffffffffffffffffffffffffffffffffffffff16815260200190815260200160002082815481106108505761084f611722565b5b906000526020600020906004020190508060000160009054906101000a900460ff16801561088d57508060000160019054906101000a900460ff16155b801561092b575061092a8160010180546108a6906113d0565b80601f01602080910402602001604051908101604052809291908181526020018280546108d2906113d0565b801561091f5780601f106108f45761010080835404028352916020019161091f565b820191906000526020600020905b81548152906001019060200180831161090257829003601f168201915b505050505085610ca3565b5b1561093a578092505050610a5b565b508061094590611751565b90506107b3565b506000600160008573ffffffffffffffffffffffffffffffffffffffff1673ffffffffffffffffffffffffffffffffffffffff16815260200190815260200160002080549050036109fb576000839080600181540180825580915050600190039060005260206000200160009091909190916101000a81548173ffffffffffffffffffffffffffffffffffffffff021916908373ffffffffffffffffffffffffffffffffffffffff1602179055505b600160008473ffffffffffffffffffffffffffffffffffffffff1673ffffffffffffffffffffffffffffffffffffffff16815260200190815260200160002060018160018154018082558091505003906000526020600020906004020190505b92915050565b600080600090505b600160008573ffffffffffffffffffffffffffffffffffffffff1673ffffffffffffffffffffffffffffffffffffffff16815260200190815260200160002080549050811015610c02576000600160008673ffffffffffffffffffffffffffffffffffffffff1673ffffffffffffffffffffffffffffffffffffffff1681526020019081526020016000208281548110610b0657610b05611722565b5b906000526020600020906004020190508060000160009054906101000a900460ff168015610b4357508060000160019054906101000a900460ff16155b8015610be15750610be0816001018054610b5c906113d0565b80601f0160208091040260200160405190810160405280929190818152602001828054610b88906113d0565b8015610bd55780601f10610baa57610100808354040283529160200191610bd5565b820191906000526020600020905b815481529060010190602001808311610bb857829003601f168201915b505050505085610ca3565b5b15610bf0578092505050610c3e565b5080610bfb90611751565b9050610a69565b506040517f08c379a0000000000000000000000000000000000000000000000000000000008152600401610c35906117e5565b60405180910390fd5b92915050565b60018160000160016101000a81548160ff0219169083151502179055507f87ce0ade265327e97e9ada56eb2de32b116e9b7fda6bef97544403e5244124fb828260010142604051610c9793929190611889565b60405180910390a15050565b6000610caf8383610cb7565b905092915050565b600081518351148015610cd7575081805190602001208380519060200120145b905092915050565b6040518060a001604052806000151581526020016000151581526020016060815260200160008152602001600081525090565b6000604051905090565b600080fd5b600080fd5b600073ffffffffffffffffffffffffffffffffffffffff82169050919050565b6000610d5182610d26565b9050919050565b610d6181610d46565b8114610d6c57600080fd5b50565b600081359050610d7e81610d58565b92915050565b600080fd5b600080fd5b6000601f19601f8301169050919050565b7f4e487b7100000000000000000000000000000000000000000000000000000000600052604160045260246000fd5b610dd782610d8e565b810181811067ffffffffffffffff82111715610df657610df5610d9f565b5b80604052505050565b6000610e09610d12565b9050610e158282610dce565b919050565b600067ffffffffffffffff821115610e3557610e34610d9f565b5b610e3e82610d8e565b9050602081019050919050565b82818337600083830152505050565b6000610e6d610e6884610e1a565b610dff565b905082815260208101848484011115610e8957610e88610d89565b5b610e94848285610e4b565b509392505050565b600082601f830112610eb157610eb0610d84565b5b8135610ec1848260208601610e5a565b91505092915050565b6000819050919050565b610edd81610eca565b8114610ee857600080fd5b50565b600081359050610efa81610ed4565b92915050565b600080600060608486031215610f1957610f18610d1c565b5b6000610f2786828701610d6f565b935050602084013567ffffffffffffffff811115610f4857610f47610d21565b5b610f5486828701610e9c565b9250506040610f6586828701610eeb565b9150509250925092565b60008060408385031215610f8657610f85610d1c565b5b6000610f9485828601610d6f565b925050602083013567ffffffffffffffff811115610fb557610fb4610d21565b5b610fc185828601610e9c565b9150509250929050565b600060208284031215610fe157610fe0610d1c565b5b6000610fef84828501610d6f565b91505092915050565b600081519050919050565b600082825260208201905092915050565b6000819050602082019050919050565b60008115159050919050565b61103981611024565b82525050565b600081519050919050565b600082825260208201905092915050565b60005b8381101561107957808201518184015260208101905061105e565b60008484015250505050565b60006110908261103f565b61109a818561104a565b93506110aa81856020860161105b565b6110b381610d8e565b840191505092915050565b6110c781610eca565b82525050565b600060a0830160008301516110e56000860182611030565b5060208301516110f86020860182611030565b50604083015184820360408601526111108282611085565b915050606083015161112560608601826110be565b50608083015161113860808601826110be565b508091505092915050565b600061114f83836110cd565b905092915050565b6000602082019050919050565b600061116f82610ff8565b6111798185611003565b93508360208202850161118b85611014565b8060005b858110156111c757848403895281516111a88582611143565b94506111b383611157565b925060208a0199505060018101905061118f565b50829750879550505050505092915050565b600060208201905081810360008301526111f38184611164565b905092915050565b600082825260208201905092915050565b7f496e76616c6964204950465320434944206c656e6774682e0000000000000000600082015250565b60006112426018836111fb565b915061124d8261120c565b602082019050919050565b6000602082019050818103600083015261127181611235565b9050919050565b7f56616c6964697479206d757374206265206174206c6561737420616e20686f7560008201527f722e000000000000000000000000000000000000000000000000000000000000602082015250565b60006112d46022836111fb565b91506112df82611278565b604082019050919050565b60006020820190508181036000830152611303816112c7565b9050919050565b7f4e487b7100000000000000000000000000000000000000000000000000000000600052601160045260246000fd5b600061134482610eca565b915061134f83610eca565b92508282019050808211156113675761136661130a565b5b92915050565b600061137882610eca565b915061138383610eca565b925082820390508181111561139b5761139a61130a565b5b92915050565b7f4e487b7100000000000000000000000000000000000000000000000000000000600052602260045260246000fd5b600060028204905060018216806113e857607f821691505b6020821081036113fb576113fa6113a1565b5b50919050565b60008190508160005260206000209050919050565b60006020601f8301049050919050565b600082821b905092915050565b6000600883026114637fffffffffffffffffffffffffffffffffffffffffffffffffffffffffffffffff82611426565b61146d8683611426565b95508019841693508086168417925050509392505050565b6000819050919050565b60006114aa6114a56114a084610eca565b611485565b610eca565b9050919050565b6000819050919050565b6114c48361148f565b6114d86114d0826114b1565b848454611433565b825550505050565b600090565b6114ed6114e0565b6114f88184846114bb565b505050565b5b8181101561151c576115116000826114e5565b6001810190506114fe565b5050565b601f8211156115615761153281611401565b61153b84611416565b8101602085101561154a578190505b61155e61155685611416565b8301826114fd565b50505b505050565b600082821c905092915050565b600061158460001984600802611566565b1980831691505092915050565b600061159d8383611573565b9150826002028217905092915050565b6115b68261103f565b67ffffffffffffffff8111156115cf576115ce610d9f565b5b6115d982546113d0565b6115e4828285611520565b600060209050601f8311600181146116175760008415611605578287015190505b61160f8582611591565b865550611677565b601f19841661162586611401565b60005b8281101561164d57848901518255600182019150602085019450602081019050611628565b8683101561166a5784890151611666601f891682611573565b8355505b6001600288020188555050505b505050505050565b61168881610d46565b82525050565b60006116998261103f565b6116a381856111fb565b93506116b381856020860161105b565b6116bc81610d8e565b840191505092915050565b6116d081610eca565b82525050565b60006080820190506116eb600083018761167f565b81810360208301526116fd818661168e565b905061170c60408301856116c7565b61171960608301846116c7565b95945050505050565b7f4e487b7100000000000000000000000000000000000000000000000000000000600052603260045260246000fd5b600061175c82610eca565b91507fffffffffffffffffffffffffffffffffffffffffffffffffffffffffffffffff820361178e5761178d61130a565b5b600182019050919050565b7f46696c65206e6f7420666f756e64206f722069732064656c657465642e000000600082015250565b60006117cf601d836111fb565b91506117da82611799565b602082019050919050565b600060208201905081810360008301526117fe816117c2565b9050919050565b60008154611812816113d0565b61181c81866111fb565b94506001821660008114611837576001811461184d57611880565b60ff198316865281151560200286019350611880565b61185685611401565b60005b8381101561187857815481890152600182019150602081019050611859565b808801955050505b50505092915050565b600060608201905061189e600083018661167f565b81810360208301526118b08185611805565b90506118bf60408301846116c7565b94935050505056fea2646970667358221220430f26f15c713a5a55057c888e28df47f94b9e56037826e4601dc7057170b43c64736f6c63430008110033",
  "linkReferences": {},
  "deployedLinkReferences": {}
}