{
  "_format": "hh-sol-artifact-1",
  "contractName": "ShiroStore",
  "sourceName": "contracts/ShiroStore.sol",
  "abi": [
    {
      "anonymous": false,
      "inputs": [
        {
          "indexed": false,
          "internalType": "address",
          "name": "owner",
          "type": "address"
        },
        {
          "indexed": false,
          "internalType": "string",
          "name": "cid",
          "type": "string"
        },
        {
          "indexed": false,
          "internalType": "uint256",
          "name": "timestamp",
          "type": "uint256"
        }
      ],
      "name": "DeleteFile",
      "type": "event"
    },
    {
      "anonymous": false,
      "inputs": [
        {
          "indexed": false,
          "internalType": "address",
          "name": "owner",
          "type": "address"
        },
        {
          "indexed": false,
          "internalType": "string",
          "name": "cid",
          "type": "string"
        },
        {
          "indexed": false,
          "internalType": "uint256",
          "name": "timestamp",
          "type": "uint256"
        },
        {
          "indexed": false,
          "internalType": "uint256",
          "name": "extendBy",
          "type": "uint256"
        }
      ],
      "name": "ExtendLife",
      "type": "event"
    },
    {
      "anonymous": false,
      "inputs": [
        {
          "indexed": false,
          "internalType": "address",
          "name": "owner",
          "type": "address"
        },
        {
          "indexed": false,
          "internalType": "string",
          "name": "cid",
          "type": "string"
        },
        {
          "indexed": false,
          "internalType": "string",
          "name": "provider",
          "type": "string"
        },
        {
          "indexed": false,
          "internalType": "uint256",
          "name": "timestamp",
          "type": "uint256"
        },
        {
          "indexed": false,
          "internalType": "uint256",
          "name": "validity",
          "type": "uint256"
        }
      ],
      "name": "NewFile",
      "type": "event"
    },
    {
      "inputs": [
        {
          "internalType": "string",
          "name": "cid",
          "type": "string"
        }
      ],
      "name": "deleteFile",
      "outputs": [],
      "stateMutability": "nonpayable",
      "type": "function"
    },
    {
      "inputs": [],
      "name": "garbageCollect",
      "outputs": [],
      "stateMutability": "nonpayable",
      "type": "function"
    },
    {
      "inputs": [],
      "name": "getFiles",
      "outputs": [
        {
          "components": [
            {
              "internalType": "bool",
              "name": "valid",
              "type": "bool"
            },
            {
              "internalType": "bool",
              "name": "deleted",
              "type": "bool"
            },
            {
              "internalType": "string",
              "name": "cid",
              "type": "string"
            },
            {
              "internalType": "string",
              "name": "provider",
              "type": "string"
            },
            {
              "internalType": "uint256",
              "name": "timestamp",
              "type": "uint256"
            },
            {
              "internalType": "uint256",
              "name": "validity",
              "type": "uint256"
            }
          ],
          "internalType": "struct File[]",
          "name": "",
          "type": "tuple[]"
        }
      ],
      "stateMutability": "view",
      "type": "function"
    },
    {
      "inputs": [
        {
          "internalType": "string",
          "name": "cid",
          "type": "string"
        },
        {
          "internalType": "uint256",
          "name": "validity",
          "type": "uint256"
        },
        {
          "internalType": "string",
          "name": "provider",
          "type": "string"
        }
      ],
      "name": "putFile",
      "outputs": [],
      "stateMutability": "payable",
      "type": "function"
    }
  ],
  "bytecode": "0x608060405234801561001057600080fd5b50611c2f806100206000396000f3fe60806040526004361061003f5760003560e01c80632da96d73146100445780635f1e042c1461006f578063a99100541461008b578063f5672f92146100b4575b600080fd5b34801561005057600080fd5b506100596100cb565b60405161006691906111d1565b60405180910390f35b61008960048036038101906100849190611368565b6104d6565b005b34801561009757600080fd5b506100b260048036038101906100ad91906113f3565b6106af565b005b3480156100c057600080fd5b506100c96106d1565b005b606060003390506000805b600160008473ffffffffffffffffffffffffffffffffffffffff1673ffffffffffffffffffffffffffffffffffffffff168152602001908152602001600020805490508110156101d6576000600160008573ffffffffffffffffffffffffffffffffffffffff1673ffffffffffffffffffffffffffffffffffffffff16815260200190815260200160002082815481106101735761017261143c565b5b906000526020600020906005020190508060000160009054906101000a900460ff1680156101b057508060000160019054906101000a900460ff16155b156101c45782806101c09061149a565b9350505b50806101cf9061149a565b90506100d6565b5060008167ffffffffffffffff8111156101f3576101f2611211565b5b60405190808252806020026020018201604052801561022c57816020015b610219610f81565b8152602001906001900390816102115790505b5090506000805b600160008673ffffffffffffffffffffffffffffffffffffffff1673ffffffffffffffffffffffffffffffffffffffff168152602001908152602001600020805490508110156104cb576000600160008773ffffffffffffffffffffffffffffffffffffffff1673ffffffffffffffffffffffffffffffffffffffff16815260200190815260200160002082815481106102d0576102cf61143c565b5b906000526020600020906005020190508060000160009054906101000a900460ff16801561030d57508060000160019054906101000a900460ff16155b156104b957806040518060c00160405290816000820160009054906101000a900460ff161515151581526020016000820160019054906101000a900460ff1615151515815260200160018201805461036490611511565b80601f016020809104026020016040519081016040528092919081815260200182805461039090611511565b80156103dd5780601f106103b2576101008083540402835291602001916103dd565b820191906000526020600020905b8154815290600101906020018083116103c057829003601f168201915b505050505081526020016002820180546103f690611511565b80601f016020809104026020016040519081016040528092919081815260200182805461042290611511565b801561046f5780601f106104445761010080835404028352916020019161046f565b820191906000526020600020905b81548152906001019060200180831161045257829003601f168201915b505050505081526020016003820154815260200160048201548152505084848151811061049f5761049e61143c565b5b602002602001018190525082806104b59061149a565b9350505b50806104c49061149a565b9050610233565b508194505050505090565b602e83511461051a576040517f08c379a00000000000000000000000000000000000000000000000000000000081526004016105119061159f565b60405180910390fd5b610e1082101561055f576040517f08c379a000000000000000000000000000000000000000000000000000000000815260040161055690611631565b60405180910390fd5b61056881610857565b600033905060006105798286610a4d565b90508060000160009054906101000a900460ff1680156105a857508060000160019054906101000a900460ff16155b80156105c7575042816004015482600301546105c49190611651565b10155b156105f95742816004015482600301546105e19190611651565b6105eb9190611685565b846105f69190611651565b93505b60018160000160006101000a81548160ff02191690831515021790555060008160000160016101000a81548160ff021916908315150217905550848160010190816106449190611865565b50828160020190816106569190611865565b504281600301819055508381600401819055507f4b9c77358058935a0e46d9b582667fd39d1b6ee96836a8f917baccf8990b1d3682868542886040516106a09594939291906119c0565b60405180910390a15050505050565b600033905060006106c08284610d03565b90506106cc8282610ee6565b505050565b60005b6000805490508110156108545760008082815481106106f6576106f561143c565b5b9060005260206000200160009054906101000a900473ffffffffffffffffffffffffffffffffffffffff16905060005b600160008373ffffffffffffffffffffffffffffffffffffffff1673ffffffffffffffffffffffffffffffffffffffff16815260200190815260200160002080549050811015610841576000600160008473ffffffffffffffffffffffffffffffffffffffff1673ffffffffffffffffffffffffffffffffffffffff16815260200190815260200160002082815481106107c3576107c261143c565b5b906000526020600020906005020190508060000160009054906101000a900460ff16801561080057508060000160019054906101000a900460ff16155b801561081f5750428160040154826003015461081c9190611651565b11155b1561082f5761082e8382610ee6565b5b508061083a9061149a565b9050610726565b50508061084d9061149a565b90506106d4565b50565b610896816040518060400160405280600481526020017f6970667300000000000000000000000000000000000000000000000000000000815250610f45565b610a4a576108d9816040518060400160405280600c81526020017f776562332e73746f726167650000000000000000000000000000000000000000815250610f45565b610a495761091c816040518060400160405280600b81526020017f6e66742e73746f72616765000000000000000000000000000000000000000000815250610f45565b610a485761095f816040518060400160405280600681526020017f70696e6174610000000000000000000000000000000000000000000000000000815250610f45565b610a47576109a2816040518060400160405280600581526020017f73746f726a000000000000000000000000000000000000000000000000000000815250610f45565b610a46576109e5816040518060400160405280600781526020017f6573747561727900000000000000000000000000000000000000000000000000815250610f45565b610a4557806040516020016109fa9190611a83565b6040516020818303038152906040526040517f08c379a0000000000000000000000000000000000000000000000000000000008152600401610a3c9190611aa9565b60405180910390fd5b5b5b5b5b5b50565b600080600090505b600160008573ffffffffffffffffffffffffffffffffffffffff1673ffffffffffffffffffffffffffffffffffffffff16815260200190815260200160002080549050811015610bee576000600160008673ffffffffffffffffffffffffffffffffffffffff1673ffffffffffffffffffffffffffffffffffffffff1681526020019081526020016000208281548110610af257610af161143c565b5b906000526020600020906005020190508060000160009054906101000a900460ff168015610b2f57508060000160019054906101000a900460ff16155b8015610bcd5750610bcc816001018054610b4890611511565b80601f0160208091040260200160405190810160405280929190818152602001828054610b7490611511565b8015610bc15780601f10610b9657610100808354040283529160200191610bc1565b820191906000526020600020905b815481529060010190602001808311610ba457829003601f168201915b505050505085610f45565b5b15610bdc578092505050610cfd565b5080610be79061149a565b9050610a55565b506000600160008573ffffffffffffffffffffffffffffffffffffffff1673ffffffffffffffffffffffffffffffffffffffff1681526020019081526020016000208054905003610c9d576000839080600181540180825580915050600190039060005260206000200160009091909190916101000a81548173ffffffffffffffffffffffffffffffffffffffff021916908373ffffffffffffffffffffffffffffffffffffffff1602179055505b600160008473ffffffffffffffffffffffffffffffffffffffff1673ffffffffffffffffffffffffffffffffffffffff16815260200190815260200160002060018160018154018082558091505003906000526020600020906005020190505b92915050565b600080600090505b600160008573ffffffffffffffffffffffffffffffffffffffff1673ffffffffffffffffffffffffffffffffffffffff16815260200190815260200160002080549050811015610ea4576000600160008673ffffffffffffffffffffffffffffffffffffffff1673ffffffffffffffffffffffffffffffffffffffff1681526020019081526020016000208281548110610da857610da761143c565b5b906000526020600020906005020190508060000160009054906101000a900460ff168015610de557508060000160019054906101000a900460ff16155b8015610e835750610e82816001018054610dfe90611511565b80601f0160208091040260200160405190810160405280929190818152602001828054610e2a90611511565b8015610e775780601f10610e4c57610100808354040283529160200191610e77565b820191906000526020600020905b815481529060010190602001808311610e5a57829003601f168201915b505050505085610f45565b5b15610e92578092505050610ee0565b5080610e9d9061149a565b9050610d0b565b506040517f08c379a0000000000000000000000000000000000000000000000000000000008152600401610ed790611b17565b60405180910390fd5b92915050565b60018160000160016101000a81548160ff0219169083151502179055507f87ce0ade265327e97e9ada56eb2de32b116e9b7fda6bef97544403e5244124fb828260010142604051610f3993929190611bbb565b60405180910390a15050565b6000610f518383610f59565b905092915050565b600081518351148015610f79575081805190602001208380519060200120145b905092915050565b6040518060c00160405280600015158152602001600015158152602001606081526020016060815260200160008152602001600081525090565b600081519050919050565b600082825260208201905092915050565b6000819050602082019050919050565b60008115159050919050565b610ffc81610fe7565b82525050565b600081519050919050565b600082825260208201905092915050565b60005b8381101561103c578082015181840152602081019050611021565b60008484015250505050565b6000601f19601f8301169050919050565b600061106482611002565b61106e818561100d565b935061107e81856020860161101e565b61108781611048565b840191505092915050565b6000819050919050565b6110a581611092565b82525050565b600060c0830160008301516110c36000860182610ff3565b5060208301516110d66020860182610ff3565b50604083015184820360408601526110ee8282611059565b915050606083015184820360608601526111088282611059565b915050608083015161111d608086018261109c565b5060a083015161113060a086018261109c565b508091505092915050565b600061114783836110ab565b905092915050565b6000602082019050919050565b600061116782610fbb565b6111718185610fc6565b93508360208202850161118385610fd7565b8060005b858110156111bf57848403895281516111a0858261113b565b94506111ab8361114f565b925060208a01995050600181019050611187565b50829750879550505050505092915050565b600060208201905081810360008301526111eb818461115c565b905092915050565b6000604051905090565b600080fd5b600080fd5b600080fd5b600080fd5b7f4e487b7100000000000000000000000000000000000000000000000000000000600052604160045260246000fd5b61124982611048565b810181811067ffffffffffffffff8211171561126857611267611211565b5b80604052505050565b600061127b6111f3565b90506112878282611240565b919050565b600067ffffffffffffffff8211156112a7576112a6611211565b5b6112b082611048565b9050602081019050919050565b82818337600083830152505050565b60006112df6112da8461128c565b611271565b9050828152602081018484840111156112fb576112fa61120c565b5b6113068482856112bd565b509392505050565b600082601f83011261132357611322611207565b5b81356113338482602086016112cc565b91505092915050565b61134581611092565b811461135057600080fd5b50565b6000813590506113628161133c565b92915050565b600080600060608486031215611381576113806111fd565b5b600084013567ffffffffffffffff81111561139f5761139e611202565b5b6113ab8682870161130e565b93505060206113bc86828701611353565b925050604084013567ffffffffffffffff8111156113dd576113dc611202565b5b6113e98682870161130e565b9150509250925092565b600060208284031215611409576114086111fd565b5b600082013567ffffffffffffffff81111561142757611426611202565b5b6114338482850161130e565b91505092915050565b7f4e487b7100000000000000000000000000000000000000000000000000000000600052603260045260246000fd5b7f4e487b7100000000000000000000000000000000000000000000000000000000600052601160045260246000fd5b60006114a582611092565b91507fffffffffffffffffffffffffffffffffffffffffffffffffffffffffffffffff82036114d7576114d661146b565b5b600182019050919050565b7f4e487b7100000000000000000000000000000000000000000000000000000000600052602260045260246000fd5b6000600282049050600182168061152957607f821691505b60208210810361153c5761153b6114e2565b5b50919050565b600082825260208201905092915050565b7f496e76616c6964204950465320434944206c656e6774682e0000000000000000600082015250565b6000611589601883611542565b915061159482611553565b602082019050919050565b600060208201905081810360008301526115b88161157c565b9050919050565b7f56616c6964697479206d757374206265206174206c6561737420616e20686f7560008201527f722e000000000000000000000000000000000000000000000000000000000000602082015250565b600061161b602283611542565b9150611626826115bf565b604082019050919050565b6000602082019050818103600083015261164a8161160e565b9050919050565b600061165c82611092565b915061166783611092565b925082820190508082111561167f5761167e61146b565b5b92915050565b600061169082611092565b915061169b83611092565b92508282039050818111156116b3576116b261146b565b5b92915050565b60008190508160005260206000209050919050565b60006020601f8301049050919050565b600082821b905092915050565b60006008830261171b7fffffffffffffffffffffffffffffffffffffffffffffffffffffffffffffffff826116de565b61172586836116de565b95508019841693508086168417925050509392505050565b6000819050919050565b600061176261175d61175884611092565b61173d565b611092565b9050919050565b6000819050919050565b61177c83611747565b61179061178882611769565b8484546116eb565b825550505050565b600090565b6117a5611798565b6117b0818484611773565b505050565b5b818110156117d4576117c960008261179d565b6001810190506117b6565b5050565b601f821115611819576117ea816116b9565b6117f3846116ce565b81016020851015611802578190505b61181661180e856116ce565b8301826117b5565b50505b505050565b600082821c905092915050565b600061183c6000198460080261181e565b1980831691505092915050565b6000611855838361182b565b9150826002028217905092915050565b61186e82611002565b67ffffffffffffffff81111561188757611886611211565b5b6118918254611511565b61189c8282856117d8565b600060209050601f8311600181146118cf57600084156118bd578287015190505b6118c78582611849565b86555061192f565b601f1984166118dd866116b9565b60005b82811015611905578489015182556001820191506020850194506020810190506118e0565b86831015611922578489015161191e601f89168261182b565b8355505b6001600288020188555050505b505050505050565b600073ffffffffffffffffffffffffffffffffffffffff82169050919050565b600061196282611937565b9050919050565b61197281611957565b82525050565b600061198382611002565b61198d8185611542565b935061199d81856020860161101e565b6119a681611048565b840191505092915050565b6119ba81611092565b82525050565b600060a0820190506119d56000830188611969565b81810360208301526119e78187611978565b905081810360408301526119fb8186611978565b9050611a0a60608301856119b1565b611a1760808301846119b1565b9695505050505050565b7f696e76616c69642073746f726167652070726f76696465723a20000000000000815250565b600081905092915050565b6000611a5d82611002565b611a678185611a47565b9350611a7781856020860161101e565b80840191505092915050565b6000611a8e82611a21565b601a82019150611a9e8284611a52565b915081905092915050565b60006020820190508181036000830152611ac38184611978565b905092915050565b7f46696c65206e6f7420666f756e64206f722069732064656c657465642e000000600082015250565b6000611b01601d83611542565b9150611b0c82611acb565b602082019050919050565b60006020820190508181036000830152611b3081611af4565b9050919050565b60008154611b4481611511565b611b4e8186611542565b94506001821660008114611b695760018114611b7f57611bb2565b60ff198316865281151560200286019350611bb2565b611b88856116b9565b60005b83811015611baa57815481890152600182019150602081019050611b8b565b808801955050505b50505092915050565b6000606082019050611bd06000830186611969565b8181036020830152611be28185611b37565b9050611bf160408301846119b1565b94935050505056fea2646970667358221220da65ef72b2f96adc9b3a5435e8c4e552187d8430f591dbcd0a31f3ff0ed9e51f64736f6c63430008110033",
  "linkReferences": {},
  "deployedLinkReferences": {}
}